{
  "contractName": "IdentityVerifier",
  "abi": [
    {
      "anonymous": false,
      "inputs": [
        {
          "indexed": true,
          "internalType": "address",
          "name": "user",
          "type": "address"
        },
        {
          "indexed": false,
          "internalType": "string",
          "name": "name",
          "type": "string"
        },
        {
          "indexed": false,
          "internalType": "uint256",
          "name": "age",
          "type": "uint256"
        },
        {
          "indexed": false,
          "internalType": "string",
          "name": "addressInfo",
          "type": "string"
        }
      ],
      "name": "IdentitySet",
      "type": "event"
    },
    {
      "anonymous": false,
      "inputs": [
        {
          "indexed": true,
          "internalType": "address",
          "name": "user",
          "type": "address"
        }
      ],
      "name": "IdentityVerified",
      "type": "event"
    },
    {
      "inputs": [
        {
          "internalType": "address",
          "name": "",
          "type": "address"
        }
      ],
      "name": "identities",
      "outputs": [
        {
          "internalType": "string",
          "name": "name",
          "type": "string"
        },
        {
          "internalType": "uint256",
          "name": "age",
          "type": "uint256"
        },
        {
          "internalType": "string",
          "name": "addressInfo",
          "type": "string"
        },
        {
          "internalType": "bool",
          "name": "verified",
          "type": "bool"
        }
      ],
      "stateMutability": "view",
      "type": "function",
      "constant": true
    },
    {
      "inputs": [
        {
          "internalType": "string",
          "name": "_name",
          "type": "string"
        },
        {
          "internalType": "uint256",
          "name": "_age",
          "type": "uint256"
        },
        {
          "internalType": "string",
          "name": "_addressInfo",
          "type": "string"
        }
      ],
      "name": "setIdentity",
      "outputs": [],
      "stateMutability": "nonpayable",
      "type": "function"
    },
    {
      "inputs": [
        {
          "internalType": "string",
          "name": "_name",
          "type": "string"
        },
        {
          "internalType": "uint256",
          "name": "_age",
          "type": "uint256"
        },
        {
          "internalType": "string",
          "name": "_addressInfo",
          "type": "string"
        }
      ],
      "name": "verifyIdentity",
      "outputs": [
        {
          "internalType": "bool",
          "name": "",
          "type": "bool"
        }
      ],
      "stateMutability": "nonpayable",
      "type": "function"
    }
  ],
  "bytecode": "0x608060405234801561001057600080fd5b50610d53806100206000396000f3fe608060405234801561001057600080fd5b50600436106100415760003560e01c806324bbc7b714610046578063aa3ecad914610062578063f653b81e14610092575b600080fd5b610060600480360381019061005b91906107a0565b6100c5565b005b61007c600480360381019061007791906107a0565b6102b0565b6040516100899190610a14565b60405180910390f35b6100ac60048036038101906100a79190610777565b6104f5565b6040516100bc9493929190610a74565b60405180910390f35b6000835111610109576040517f08c379a000000000000000000000000000000000000000000000000000000000815260040161010090610ac7565b60405180910390fd5b6000821161014c576040517f08c379a000000000000000000000000000000000000000000000000000000000815260040161014390610b07565b60405180910390fd5b6000815111610190576040517f08c379a000000000000000000000000000000000000000000000000000000000815260040161018790610ae7565b60405180910390fd5b6040518060800160405280848152602001838152602001828152602001600015158152506000803373ffffffffffffffffffffffffffffffffffffffff1673ffffffffffffffffffffffffffffffffffffffff168152602001908152602001600020600082015181600001908051906020019061020e929190610642565b50602082015181600101556040820151816002019080519060200190610235929190610642565b5060608201518160030160006101000a81548160ff0219169083151502179055509050503373ffffffffffffffffffffffffffffffffffffffff167fcf001f5a53028c31dbf04106cb909a34a42386b084983c521986e8716611bac18484846040516102a393929190610a2f565b60405180910390a2505050565b6000806000803373ffffffffffffffffffffffffffffffffffffffff1673ffffffffffffffffffffffffffffffffffffffff16815260200190815260200160002090506000855111610337576040517f08c379a000000000000000000000000000000000000000000000000000000000815260040161032e90610ac7565b60405180910390fd5b6000841161037a576040517f08c379a000000000000000000000000000000000000000000000000000000000815260040161037190610b07565b60405180910390fd5b60008351116103be576040517f08c379a00000000000000000000000000000000000000000000000000000000081526004016103b590610ae7565b60405180910390fd5b846040516020016103cf91906109e6565b60405160208183030381529060405280519060200120816000016040516020016103f991906109fd565b6040516020818303038152906040528051906020012014801561041f5750838160010154145b801561047957508260405160200161043791906109e6565b604051602081830303815290604052805190602001208160020160405160200161046191906109fd565b60405160208183030381529060405280519060200120145b156104e85760018160030160006101000a81548160ff0219169083151502179055503373ffffffffffffffffffffffffffffffffffffffff167f02f93fdaafad8edad1ca75101b1fbda62e64ab9afc26d0ea801ccf6ef02c09ab60405160405180910390a260019150506104ee565b60009150505b9392505050565b600060205280600052604060002060009150905080600001805461051890610c4e565b80601f016020809104026020016040519081016040528092919081815260200182805461054490610c4e565b80156105915780601f1061056657610100808354040283529160200191610591565b820191906000526020600020905b81548152906001019060200180831161057457829003601f168201915b5050505050908060010154908060020180546105ac90610c4e565b80601f01602080910402602001604051908101604052809291908181526020018280546105d890610c4e565b80156106255780601f106105fa57610100808354040283529160200191610625565b820191906000526020600020905b81548152906001019060200180831161060857829003601f168201915b5050505050908060030160009054906101000a900460ff16905084565b82805461064e90610c4e565b90600052602060002090601f01602090048101928261067057600085556106b7565b82601f1061068957805160ff19168380011785556106b7565b828001600101855582156106b7579182015b828111156106b657825182559160200191906001019061069b565b5b5090506106c491906106c8565b5090565b5b808211156106e15760008160009055506001016106c9565b5090565b60006106f86106f384610b58565b610b27565b90508281526020810184848401111561071057600080fd5b61071b848285610c0c565b509392505050565b60008135905061073281610cef565b92915050565b600082601f83011261074957600080fd5b81356107598482602086016106e5565b91505092915050565b60008135905061077181610d06565b92915050565b60006020828403121561078957600080fd5b600061079784828501610723565b91505092915050565b6000806000606084860312156107b557600080fd5b600084013567ffffffffffffffff8111156107cf57600080fd5b6107db86828701610738565b93505060206107ec86828701610762565b925050604084013567ffffffffffffffff81111561080957600080fd5b61081586828701610738565b9150509250925092565b61082881610bd6565b82525050565b600061083982610b9d565b6108438185610ba8565b9350610853818560208601610c1b565b61085c81610cde565b840191505092915050565b600061087282610b9d565b61087c8185610bb9565b935061088c818560208601610c1b565b80840191505092915050565b600081546108a581610c4e565b6108af8186610bb9565b945060018216600081146108ca57600181146108db5761090e565b60ff1983168652818601935061090e565b6108e485610b88565b60005b83811015610906578154818901526001820191506020810190506108e7565b838801955050505b50505092915050565b6000610924601483610ba8565b91507f4e616d652063616e6e6f7420626520656d7074790000000000000000000000006000830152602082019050919050565b6000610964601783610ba8565b91507f416464726573732063616e6e6f7420626520656d7074790000000000000000006000830152602082019050919050565b60006109a4601d83610ba8565b91507f416765206d7573742062652067726561746572207468616e207a65726f0000006000830152602082019050919050565b6109e081610c02565b82525050565b60006109f28284610867565b915081905092915050565b6000610a098284610898565b915081905092915050565b6000602082019050610a29600083018461081f565b92915050565b60006060820190508181036000830152610a49818661082e565b9050610a5860208301856109d7565b8181036040830152610a6a818461082e565b9050949350505050565b60006080820190508181036000830152610a8e818761082e565b9050610a9d60208301866109d7565b8181036040830152610aaf818561082e565b9050610abe606083018461081f565b95945050505050565b60006020820190508181036000830152610ae081610917565b9050919050565b60006020820190508181036000830152610b0081610957565b9050919050565b60006020820190508181036000830152610b2081610997565b9050919050565b6000604051905081810181811067ffffffffffffffff82111715610b4e57610b4d610caf565b5b8060405250919050565b600067ffffffffffffffff821115610b7357610b72610caf565b5b601f19601f8301169050602081019050919050565b60008190508160005260206000209050919050565b600081519050919050565b600082825260208201905092915050565b600081905092915050565b6000610bcf82610be2565b9050919050565b60008115159050919050565b600073ffffffffffffffffffffffffffffffffffffffff82169050919050565b6000819050919050565b82818337600083830152505050565b60005b83811015610c39578082015181840152602081019050610c1e565b83811115610c48576000848401525b50505050565b60006002820490506001821680610c6657607f821691505b60208210811415610c7a57610c79610c80565b5b50919050565b7f4e487b7100000000000000000000000000000000000000000000000000000000600052602260045260246000fd5b7f4e487b7100000000000000000000000000000000000000000000000000000000600052604160045260246000fd5b6000601f19601f8301169050919050565b610cf881610bc4565b8114610d0357600080fd5b50565b610d0f81610c02565b8114610d1a57600080fd5b5056fea2646970667358221220ee5b459052120123c86858615a974a83ec1e1005264dc3fb0f87b34c0b69fd8564736f6c63430008000033",
  "immutableReferences": {},
  "source": "// SPDX-License-Identifier: MIT\npragma solidity ^0.8.0;\n\ncontract IdentityVerifier {\n    struct Identity {\n        string name;\n        uint256 age;\n        string addressInfo;\n        bool verified;\n    }\n\n    mapping(address => Identity) public identities;\n\n    event IdentitySet(address indexed user, string name, uint256 age, string addressInfo);\n    event IdentityVerified(address indexed user);\n\n    function setIdentity(\n        string memory _name,\n        uint256 _age,\n        string memory _addressInfo\n    ) public {\n        require(bytes(_name).length > 0, \"Name cannot be empty\");\n        require(_age > 0, \"Age must be greater than zero\");\n        require(bytes(_addressInfo).length > 0, \"Address cannot be empty\");\n\n        identities[msg.sender] = Identity(_name, _age, _addressInfo, false);\n        emit IdentitySet(msg.sender, _name, _age, _addressInfo);\n    }\n\n    function verifyIdentity(\n        string memory _name,\n        uint256 _age,\n        string memory _addressInfo\n    ) public returns (bool) {\n        Identity storage identity = identities[msg.sender];\n        require(bytes(_name).length > 0, \"Name cannot be empty\");\n        require(_age > 0, \"Age must be greater than zero\");\n        require(bytes(_addressInfo).length > 0, \"Address cannot be empty\");\n\n        if (\n            keccak256(abi.encodePacked(identity.name)) ==\n            keccak256(abi.encodePacked(_name)) &&\n            identity.age == _age &&\n            keccak256(abi.encodePacked(identity.addressInfo)) ==\n            keccak256(abi.encodePacked(_addressInfo))\n        ) {\n            identity.verified = true;\n            emit IdentityVerified(msg.sender);\n            return true;\n        }\n        return false;\n    }\n}\n\n",
  "sourcePath": "/home/vismay/IDverifier/contracts/IdentityVerifier.sol",
  "compiler": {
    "name": "solc",
    "version": "0.8.0+commit.c7dfd78e.Emscripten.clang"
  },
  "schemaVersion": "3.4.16",
  "updatedAt": "2024-04-29T16:00:24.471Z",
  "networkType": "ethereum",
  "devdoc": {
    "kind": "dev",
    "methods": {},
    "version": 1
  },
  "userdoc": {
    "kind": "user",
    "methods": {},
    "version": 1
  }
}